{
  "_format": "hh-sol-artifact-1",
  "contractName": "DecentralAirbnb",
  "sourceName": "contracts/DecentralAirbnb.sol",
  "abi": [
    {
      "inputs": [
        {
          "internalType": "uint256",
          "name": "_listingFee",
          "type": "uint256"
        },
        {
          "internalType": "address",
          "name": "_priceFeedAddress",
          "type": "address"
        }
      ],
      "stateMutability": "nonpayable",
      "type": "constructor"
    },
    {
      "anonymous": false,
      "inputs": [
        {
          "indexed": false,
          "internalType": "uint256",
          "name": "rentalId",
          "type": "uint256"
        },
        {
          "indexed": false,
          "internalType": "address",
          "name": "renter",
          "type": "address"
        },
        {
          "indexed": false,
          "internalType": "uint256",
          "name": "bookDateStart",
          "type": "uint256"
        },
        {
          "indexed": false,
          "internalType": "uint256",
          "name": "bookDateEnd",
          "type": "uint256"
        },
        {
          "indexed": false,
          "internalType": "uint256",
          "name": "timestamp",
          "type": "uint256"
        }
      ],
      "name": "NewBookAdded",
      "type": "event"
    },
    {
      "anonymous": false,
      "inputs": [
        {
          "indexed": false,
          "internalType": "uint256",
          "name": "id",
          "type": "uint256"
        },
        {
          "indexed": false,
          "internalType": "address",
          "name": "owner",
          "type": "address"
        },
        {
          "indexed": false,
          "internalType": "string",
          "name": "name",
          "type": "string"
        },
        {
          "indexed": false,
          "internalType": "string",
          "name": "city",
          "type": "string"
        },
        {
          "indexed": false,
          "internalType": "string",
          "name": "latitude",
          "type": "string"
        },
        {
          "indexed": false,
          "internalType": "string",
          "name": "longitude",
          "type": "string"
        },
        {
          "indexed": false,
          "internalType": "string",
          "name": "description",
          "type": "string"
        },
        {
          "indexed": false,
          "internalType": "string",
          "name": "imgUrl",
          "type": "string"
        },
        {
          "indexed": false,
          "internalType": "uint256",
          "name": "maxGuests",
          "type": "uint256"
        },
        {
          "indexed": false,
          "internalType": "uint256",
          "name": "pricePerDay",
          "type": "uint256"
        },
        {
          "indexed": false,
          "internalType": "uint256",
          "name": "timestamp",
          "type": "uint256"
        }
      ],
      "name": "NewRentalCreated",
      "type": "event"
    },
    {
      "inputs": [
        {
          "internalType": "string",
          "name": "_name",
          "type": "string"
        },
        {
          "internalType": "string",
          "name": "_city",
          "type": "string"
        },
        {
          "internalType": "string",
          "name": "_latitude",
          "type": "string"
        },
        {
          "internalType": "string",
          "name": "_longitude",
          "type": "string"
        },
        {
          "internalType": "string",
          "name": "_description",
          "type": "string"
        },
        {
          "internalType": "string",
          "name": "_imgUrl",
          "type": "string"
        },
        {
          "internalType": "uint256",
          "name": "_maxGuests",
          "type": "uint256"
        },
        {
          "internalType": "uint256",
          "name": "_pricePerDay",
          "type": "uint256"
        }
      ],
      "name": "addRental",
      "outputs": [],
      "stateMutability": "payable",
      "type": "function"
    },
    {
      "inputs": [],
      "name": "admin",
      "outputs": [
        {
          "internalType": "address",
          "name": "",
          "type": "address"
        }
      ],
      "stateMutability": "view",
      "type": "function"
    },
    {
      "inputs": [
        {
          "internalType": "uint256",
          "name": "_id",
          "type": "uint256"
        },
        {
          "internalType": "uint256",
          "name": "_fromDateTimestamp",
          "type": "uint256"
        },
        {
          "internalType": "uint256",
          "name": "_toDateTimestamp",
          "type": "uint256"
        }
      ],
      "name": "bookDates",
      "outputs": [],
      "stateMutability": "payable",
      "type": "function"
    },
    {
      "inputs": [
        {
          "internalType": "uint256",
          "name": "_newFee",
          "type": "uint256"
        }
      ],
      "name": "changeListingFee",
      "outputs": [],
      "stateMutability": "nonpayable",
      "type": "function"
    },
    {
      "inputs": [
        {
          "internalType": "uint256",
          "name": "amountInUSD",
          "type": "uint256"
        }
      ],
      "name": "convertFromUSD",
      "outputs": [
        {
          "internalType": "uint256",
          "name": "",
          "type": "uint256"
        }
      ],
      "stateMutability": "view",
      "type": "function"
    },
    {
      "inputs": [],
      "name": "getBalance",
      "outputs": [
        {
          "internalType": "uint256",
          "name": "",
          "type": "uint256"
        }
      ],
      "stateMutability": "view",
      "type": "function"
    },
    {
      "inputs": [],
      "name": "getPrice",
      "outputs": [
        {
          "internalType": "uint256",
          "name": "",
          "type": "uint256"
        },
        {
          "internalType": "uint256",
          "name": "",
          "type": "uint256"
        }
      ],
      "stateMutability": "view",
      "type": "function"
    },
    {
      "inputs": [
        {
          "internalType": "uint256",
          "name": "_id",
          "type": "uint256"
        }
      ],
      "name": "getRentalBookings",
      "outputs": [
        {
          "components": [
            {
              "internalType": "address",
              "name": "renter",
              "type": "address"
            },
            {
              "internalType": "uint256",
              "name": "fromTimestamp",
              "type": "uint256"
            },
            {
              "internalType": "uint256",
              "name": "toTimestamp",
              "type": "uint256"
            }
          ],
          "internalType": "struct DecentralAirbnb.Booking[]",
          "name": "",
          "type": "tuple[]"
        }
      ],
      "stateMutability": "view",
      "type": "function"
    },
    {
      "inputs": [
        {
          "internalType": "uint256",
          "name": "_id",
          "type": "uint256"
        }
      ],
      "name": "getRentalInfo",
      "outputs": [
        {
          "components": [
            {
              "internalType": "uint256",
              "name": "id",
              "type": "uint256"
            },
            {
              "internalType": "address",
              "name": "owner",
              "type": "address"
            },
            {
              "internalType": "string",
              "name": "name",
              "type": "string"
            },
            {
              "internalType": "string",
              "name": "city",
              "type": "string"
            },
            {
              "internalType": "string",
              "name": "latitude",
              "type": "string"
            },
            {
              "internalType": "string",
              "name": "longitude",
              "type": "string"
            },
            {
              "internalType": "string",
              "name": "description",
              "type": "string"
            },
            {
              "internalType": "string",
              "name": "imgUrl",
              "type": "string"
            },
            {
              "internalType": "uint256",
              "name": "maxNumberOfGuests",
              "type": "uint256"
            },
            {
              "internalType": "uint256",
              "name": "pricePerDay",
              "type": "uint256"
            }
          ],
          "internalType": "struct DecentralAirbnb.RentalInfo",
          "name": "",
          "type": "tuple"
        }
      ],
      "stateMutability": "view",
      "type": "function"
    },
    {
      "inputs": [],
      "name": "getRentals",
      "outputs": [
        {
          "components": [
            {
              "internalType": "uint256",
              "name": "id",
              "type": "uint256"
            },
            {
              "internalType": "address",
              "name": "owner",
              "type": "address"
            },
            {
              "internalType": "string",
              "name": "name",
              "type": "string"
            },
            {
              "internalType": "string",
              "name": "city",
              "type": "string"
            },
            {
              "internalType": "string",
              "name": "latitude",
              "type": "string"
            },
            {
              "internalType": "string",
              "name": "longitude",
              "type": "string"
            },
            {
              "internalType": "string",
              "name": "description",
              "type": "string"
            },
            {
              "internalType": "string",
              "name": "imgUrl",
              "type": "string"
            },
            {
              "internalType": "uint256",
              "name": "maxNumberOfGuests",
              "type": "uint256"
            },
            {
              "internalType": "uint256",
              "name": "pricePerDay",
              "type": "uint256"
            }
          ],
          "internalType": "struct DecentralAirbnb.RentalInfo[]",
          "name": "",
          "type": "tuple[]"
        }
      ],
      "stateMutability": "view",
      "type": "function"
    },
    {
      "inputs": [],
      "name": "listingFee",
      "outputs": [
        {
          "internalType": "uint256",
          "name": "",
          "type": "uint256"
        }
      ],
      "stateMutability": "view",
      "type": "function"
    },
    {
      "inputs": [],
      "name": "priceFeedAddress",
      "outputs": [
        {
          "internalType": "address",
          "name": "",
          "type": "address"
        }
      ],
      "stateMutability": "view",
      "type": "function"
    },
    {
      "inputs": [
        {
          "internalType": "uint256",
          "name": "",
          "type": "uint256"
        }
      ],
      "name": "rentals",
      "outputs": [
        {
          "internalType": "uint256",
          "name": "id",
          "type": "uint256"
        },
        {
          "internalType": "address",
          "name": "owner",
          "type": "address"
        },
        {
          "internalType": "string",
          "name": "name",
          "type": "string"
        },
        {
          "internalType": "string",
          "name": "city",
          "type": "string"
        },
        {
          "internalType": "string",
          "name": "latitude",
          "type": "string"
        },
        {
          "internalType": "string",
          "name": "longitude",
          "type": "string"
        },
        {
          "internalType": "string",
          "name": "description",
          "type": "string"
        },
        {
          "internalType": "string",
          "name": "imgUrl",
          "type": "string"
        },
        {
          "internalType": "uint256",
          "name": "maxNumberOfGuests",
          "type": "uint256"
        },
        {
          "internalType": "uint256",
          "name": "pricePerDay",
          "type": "uint256"
        }
      ],
      "stateMutability": "view",
      "type": "function"
    },
    {
      "inputs": [],
      "name": "withdrawBalance",
      "outputs": [],
      "stateMutability": "nonpayable",
      "type": "function"
    }
  ],
  "bytecode": "0x60806040523480156200001157600080fd5b506040516200359f3803806200359f8339818101604052810190620000379190620000f5565b33600160006101000a81548173ffffffffffffffffffffffffffffffffffffffff021916908373ffffffffffffffffffffffffffffffffffffffff16021790555081600281905550806000806101000a81548173ffffffffffffffffffffffffffffffffffffffff021916908373ffffffffffffffffffffffffffffffffffffffff1602179055505050620001a8565b600081519050620000d88162000174565b92915050565b600081519050620000ef816200018e565b92915050565b600080604083850312156200010957600080fd5b60006200011985828601620000de565b92505060206200012c85828601620000c7565b9150509250929050565b600062000143826200014a565b9050919050565b600073ffffffffffffffffffffffffffffffffffffffff82169050919050565b6000819050919050565b6200017f8162000136565b81146200018b57600080fd5b50565b62000199816200016a565b8114620001a557600080fd5b50565b6133e780620001b86000396000f3fe6080604052600436106100dd5760003560e01c80637eb897241161007f5780639982aaeb116100595780639982aaeb146102a2578063af94a1d1146102be578063e0abca0b14610304578063f851a4401461032f576100dd565b80637eb89724146101fc57806395b366701461023957806398d5fdca14610276576100dd565b80635ea5da20116100bb5780635ea5da20146101665780635fd8c710146101915780636a1b7ecc146101a857806377f25f6f146101d3576100dd565b806312065fe0146100e257806327dc3fbd1461010d57806346e6e5fb1461014a575b600080fd5b3480156100ee57600080fd5b506100f761035a565b6040516101049190612aae565b60405180910390f35b34801561011957600080fd5b50610134600480360381019061012f9190612357565b610362565b6040516101419190612a8c565b60405180910390f35b610164600480360381019061015f9190612380565b6107e9565b005b34801561017257600080fd5b5061017b610ecd565b604051610188919061298a565b60405180910390f35b34801561019d57600080fd5b506101a661130d565b005b3480156101b457600080fd5b506101bd611408565b6040516101ca9190612aae565b60405180910390f35b3480156101df57600080fd5b506101fa60048036038101906101f59190612357565b61140e565b005b34801561020857600080fd5b50610223600480360381019061021e9190612357565b6114a8565b6040516102309190612968565b60405180910390f35b34801561024557600080fd5b50610260600480360381019061025b9190612357565b6115c8565b60405161026d9190612aae565b60405180910390f35b34801561028257600080fd5b5061028b61160b565b604051610299929190612cb7565b60405180910390f35b6102bc60048036038101906102b79190612215565b61174c565b005b3480156102ca57600080fd5b506102e560048036038101906102e09190612357565b6119a9565b6040516102fb9a99989796959493929190612ac9565b60405180910390f35b34801561031057600080fd5b50610319611d5d565b604051610326919061294d565b60405180910390f35b34801561033b57600080fd5b50610344611d81565b604051610351919061294d565b60405180910390f35b600047905090565b61036a612038565b60035482106103ae576040517f08c379a00000000000000000000000000000000000000000000000000000000081526004016103a5906129cc565b60405180910390fd5b600482815481106103e8577f4e487b7100000000000000000000000000000000000000000000000000000000600052603260045260246000fd5b90600052602060002090600a020160405180610140016040529081600082015481526020016001820160009054906101000a900473ffffffffffffffffffffffffffffffffffffffff1673ffffffffffffffffffffffffffffffffffffffff1673ffffffffffffffffffffffffffffffffffffffff168152602001600282018054610472906130b0565b80601f016020809104026020016040519081016040528092919081815260200182805461049e906130b0565b80156104eb5780601f106104c0576101008083540402835291602001916104eb565b820191906000526020600020905b8154815290600101906020018083116104ce57829003601f168201915b50505050508152602001600382018054610504906130b0565b80601f0160208091040260200160405190810160405280929190818152602001828054610530906130b0565b801561057d5780601f106105525761010080835404028352916020019161057d565b820191906000526020600020905b81548152906001019060200180831161056057829003601f168201915b50505050508152602001600482018054610596906130b0565b80601f01602080910402602001604051908101604052809291908181526020018280546105c2906130b0565b801561060f5780601f106105e45761010080835404028352916020019161060f565b820191906000526020600020905b8154815290600101906020018083116105f257829003601f168201915b50505050508152602001600582018054610628906130b0565b80601f0160208091040260200160405190810160405280929190818152602001828054610654906130b0565b80156106a15780601f10610676576101008083540402835291602001916106a1565b820191906000526020600020905b81548152906001019060200180831161068457829003601f168201915b505050505081526020016006820180546106ba906130b0565b80601f01602080910402602001604051908101604052809291908181526020018280546106e6906130b0565b80156107335780601f1061070857610100808354040283529160200191610733565b820191906000526020600020905b81548152906001019060200180831161071657829003601f168201915b5050505050815260200160078201805461074c906130b0565b80601f0160208091040260200160405190810160405280929190818152602001828054610778906130b0565b80156107c55780601f1061079a576101008083540402835291602001916107c5565b820191906000526020600020905b8154815290600101906020018083116107a857829003601f168201915b50505050508152602001600882015481526020016009820154815250509050919050565b600354831061082d576040517f08c379a000000000000000000000000000000000000000000000000000000000815260040161082490612a0c565b60405180910390fd5b600060048481548110610869577f4e487b7100000000000000000000000000000000000000000000000000000000600052603260045260246000fd5b90600052602060002090600a020160405180610140016040529081600082015481526020016001820160009054906101000a900473ffffffffffffffffffffffffffffffffffffffff1673ffffffffffffffffffffffffffffffffffffffff1673ffffffffffffffffffffffffffffffffffffffff1681526020016002820180546108f3906130b0565b80601f016020809104026020016040519081016040528092919081815260200182805461091f906130b0565b801561096c5780601f106109415761010080835404028352916020019161096c565b820191906000526020600020905b81548152906001019060200180831161094f57829003601f168201915b50505050508152602001600382018054610985906130b0565b80601f01602080910402602001604051908101604052809291908181526020018280546109b1906130b0565b80156109fe5780601f106109d3576101008083540402835291602001916109fe565b820191906000526020600020905b8154815290600101906020018083116109e157829003601f168201915b50505050508152602001600482018054610a17906130b0565b80601f0160208091040260200160405190810160405280929190818152602001828054610a43906130b0565b8015610a905780601f10610a6557610100808354040283529160200191610a90565b820191906000526020600020905b815481529060010190602001808311610a7357829003601f168201915b50505050508152602001600582018054610aa9906130b0565b80601f0160208091040260200160405190810160405280929190818152602001828054610ad5906130b0565b8015610b225780601f10610af757610100808354040283529160200191610b22565b820191906000526020600020905b815481529060010190602001808311610b0557829003601f168201915b50505050508152602001600682018054610b3b906130b0565b80601f0160208091040260200160405190810160405280929190818152602001828054610b67906130b0565b8015610bb45780601f10610b8957610100808354040283529160200191610bb4565b820191906000526020600020905b815481529060010190602001808311610b9757829003601f168201915b50505050508152602001600782018054610bcd906130b0565b80601f0160208091040260200160405190810160405280929190818152602001828054610bf9906130b0565b8015610c465780601f10610c1b57610100808354040283529160200191610c46565b820191906000526020600020905b815481529060010190602001808311610c2957829003601f168201915b505050505081526020016008820154815260200160098201548152505090506000620151808484610c779190612fd1565b610c819190612dd5565b90506001811015610cc7576040517f08c379a0000000000000000000000000000000000000000000000000000000008152600401610cbe906129ec565b60405180910390fd5b600081610cd88461012001516115c8565b610ce29190612f77565b9050803414610d26576040517f08c379a0000000000000000000000000000000000000000000000000000000008152600401610d1d906129ac565b60405180910390fd5b610d31868686611da7565b15610d71576040517f08c379a0000000000000000000000000000000000000000000000000000000008152600401610d6890612a6c565b60405180910390fd5b6005600087815260200190815260200160002060405180606001604052803373ffffffffffffffffffffffffffffffffffffffff16815260200187815260200186815250908060018154018082558091505060019003906000526020600020906003020160009091909190915060008201518160000160006101000a81548173ffffffffffffffffffffffffffffffffffffffff021916908373ffffffffffffffffffffffffffffffffffffffff16021790555060208201518160010155604082015181600201555050826020015173ffffffffffffffffffffffffffffffffffffffff166108fc349081150290604051600060405180830381858888f19350505050158015610e85573d6000803e3d6000fd5b507f8145f5f7785888577f4b907341639304ff8a5ad886ca425f513abe27b44285658633878742604051610ebd959493929190612c64565b60405180910390a1505050505050565b60606004805480602002602001604051908101604052809291908181526020016000905b8282101561130457838290600052602060002090600a020160405180610140016040529081600082015481526020016001820160009054906101000a900473ffffffffffffffffffffffffffffffffffffffff1673ffffffffffffffffffffffffffffffffffffffff1673ffffffffffffffffffffffffffffffffffffffff168152602001600282018054610f85906130b0565b80601f0160208091040260200160405190810160405280929190818152602001828054610fb1906130b0565b8015610ffe5780601f10610fd357610100808354040283529160200191610ffe565b820191906000526020600020905b815481529060010190602001808311610fe157829003601f168201915b50505050508152602001600382018054611017906130b0565b80601f0160208091040260200160405190810160405280929190818152602001828054611043906130b0565b80156110905780601f1061106557610100808354040283529160200191611090565b820191906000526020600020905b81548152906001019060200180831161107357829003601f168201915b505050505081526020016004820180546110a9906130b0565b80601f01602080910402602001604051908101604052809291908181526020018280546110d5906130b0565b80156111225780601f106110f757610100808354040283529160200191611122565b820191906000526020600020905b81548152906001019060200180831161110557829003601f168201915b5050505050815260200160058201805461113b906130b0565b80601f0160208091040260200160405190810160405280929190818152602001828054611167906130b0565b80156111b45780601f10611189576101008083540402835291602001916111b4565b820191906000526020600020905b81548152906001019060200180831161119757829003601f168201915b505050505081526020016006820180546111cd906130b0565b80601f01602080910402602001604051908101604052809291908181526020018280546111f9906130b0565b80156112465780601f1061121b57610100808354040283529160200191611246565b820191906000526020600020905b81548152906001019060200180831161122957829003601f168201915b5050505050815260200160078201805461125f906130b0565b80601f016020809104026020016040519081016040528092919081815260200182805461128b906130b0565b80156112d85780601f106112ad576101008083540402835291602001916112d8565b820191906000526020600020905b8154815290600101906020018083116112bb57829003601f168201915b505050505081526020016008820154815260200160098201548152505081526020019060010190610ef1565b50505050905090565b600160009054906101000a900473ffffffffffffffffffffffffffffffffffffffff1673ffffffffffffffffffffffffffffffffffffffff163373ffffffffffffffffffffffffffffffffffffffff161461139d576040517f08c379a000000000000000000000000000000000000000000000000000000000815260040161139490612a2c565b60405180910390fd5b600160009054906101000a900473ffffffffffffffffffffffffffffffffffffffff1673ffffffffffffffffffffffffffffffffffffffff166108fc479081150290604051600060405180830381858888f19350505050158015611405573d6000803e3d6000fd5b50565b60025481565b600160009054906101000a900473ffffffffffffffffffffffffffffffffffffffff1673ffffffffffffffffffffffffffffffffffffffff163373ffffffffffffffffffffffffffffffffffffffff161461149e576040517f08c379a000000000000000000000000000000000000000000000000000000000815260040161149590612a2c565b60405180910390fd5b8060028190555050565b606060035482106114ee576040517f08c379a00000000000000000000000000000000000000000000000000000000081526004016114e5906129cc565b60405180910390fd5b60056000838152602001908152602001600020805480602002602001604051908101604052809291908181526020016000905b828210156115bd57838290600052602060002090600302016040518060600160405290816000820160009054906101000a900473ffffffffffffffffffffffffffffffffffffffff1673ffffffffffffffffffffffffffffffffffffffff1673ffffffffffffffffffffffffffffffffffffffff1681526020016001820154815260200160028201548152505081526020019060010190611521565b505050509050919050565b60008060006115d561160b565b9150915060008282600a6115e99190612e59565b866115f49190612f77565b6115fe9190612dd5565b9050809350505050919050565b60008060008060009054906101000a900473ffffffffffffffffffffffffffffffffffffffff16905060008173ffffffffffffffffffffffffffffffffffffffff1663feaf968c6040518163ffffffff1660e01b815260040160a06040518083038186803b15801561167c57600080fd5b505afa158015611690573d6000803e3d6000fd5b505050506040513d601f19601f820116820180604052508101906116b491906123cf565b50505091505060008273ffffffffffffffffffffffffffffffffffffffff1663313ce5676040518163ffffffff1660e01b815260040160206040518083038186803b15801561170257600080fd5b505afa158015611716573d6000803e3d6000fd5b505050506040513d601f19601f8201168201806040525081019061173a9190612446565b60ff1690508181945094505050509091565b6002543414611790576040517f08c379a000000000000000000000000000000000000000000000000000000000815260040161178790612a4c565b60405180910390fd5b6000600354905060006040518061014001604052808381526020013373ffffffffffffffffffffffffffffffffffffffff1681526020018b81526020018a815260200189815260200188815260200187815260200186815260200185815260200184815250905060048190806001815401808255809150506001900390600052602060002090600a02016000909190919091506000820151816000015560208201518160010160006101000a81548173ffffffffffffffffffffffffffffffffffffffff021916908373ffffffffffffffffffffffffffffffffffffffff16021790555060408201518160020190805190602001906118909291906120a1565b5060608201518160030190805190602001906118ad9291906120a1565b5060808201518160040190805190602001906118ca9291906120a1565b5060a08201518160050190805190602001906118e79291906120a1565b5060c08201518160060190805190602001906119049291906120a1565b5060e08201518160070190805190602001906119219291906120a1565b506101008201518160080155610120820151816009015550506003600081548092919061194d90613113565b91905055507fa0c4bfdadb448904df95d75b6b9a5559d01fd1e5dcabf5b10f6c358eecfde4c782338c8c8c8c8c8c8c8c426040516119959b9a99989796959493929190612b8f565b60405180910390a150505050505050505050565b600481815481106119b957600080fd5b90600052602060002090600a02016000915090508060000154908060010160009054906101000a900473ffffffffffffffffffffffffffffffffffffffff1690806002018054611a08906130b0565b80601f0160208091040260200160405190810160405280929190818152602001828054611a34906130b0565b8015611a815780601f10611a5657610100808354040283529160200191611a81565b820191906000526020600020905b815481529060010190602001808311611a6457829003601f168201915b505050505090806003018054611a96906130b0565b80601f0160208091040260200160405190810160405280929190818152602001828054611ac2906130b0565b8015611b0f5780601f10611ae457610100808354040283529160200191611b0f565b820191906000526020600020905b815481529060010190602001808311611af257829003601f168201915b505050505090806004018054611b24906130b0565b80601f0160208091040260200160405190810160405280929190818152602001828054611b50906130b0565b8015611b9d5780601f10611b7257610100808354040283529160200191611b9d565b820191906000526020600020905b815481529060010190602001808311611b8057829003601f168201915b505050505090806005018054611bb2906130b0565b80601f0160208091040260200160405190810160405280929190818152602001828054611bde906130b0565b8015611c2b5780601f10611c0057610100808354040283529160200191611c2b565b820191906000526020600020905b815481529060010190602001808311611c0e57829003601f168201915b505050505090806006018054611c40906130b0565b80601f0160208091040260200160405190810160405280929190818152602001828054611c6c906130b0565b8015611cb95780601f10611c8e57610100808354040283529160200191611cb9565b820191906000526020600020905b815481529060010190602001808311611c9c57829003601f168201915b505050505090806007018054611cce906130b0565b80601f0160208091040260200160405190810160405280929190818152602001828054611cfa906130b0565b8015611d475780601f10611d1c57610100808354040283529160200191611d47565b820191906000526020600020905b815481529060010190602001808311611d2a57829003601f168201915b505050505090806008015490806009015490508a565b60008054906101000a900473ffffffffffffffffffffffffffffffffffffffff1681565b600160009054906101000a900473ffffffffffffffffffffffffffffffffffffffff1681565b60006003548410611ded576040517f08c379a0000000000000000000000000000000000000000000000000000000008152600401611de4906129cc565b60405180910390fd5b600060056000868152602001908152602001600020805480602002602001604051908101604052809291908181526020016000905b82821015611ebe57838290600052602060002090600302016040518060600160405290816000820160009054906101000a900473ffffffffffffffffffffffffffffffffffffffff1673ffffffffffffffffffffffffffffffffffffffff1673ffffffffffffffffffffffffffffffffffffffff1681526020016001820154815260200160028201548152505081526020019060010190611e22565b50505050905060005b815181101561202a57818181518110611f09577f4e487b7100000000000000000000000000000000000000000000000000000000600052603260045260246000fd5b6020026020010151602001518510158015611f685750818181518110611f58577f4e487b7100000000000000000000000000000000000000000000000000000000600052603260045260246000fd5b6020026020010151604001518511155b806120075750818181518110611fa7577f4e487b7100000000000000000000000000000000000000000000000000000000600052603260045260246000fd5b60200260200101516020015184101580156120065750818181518110611ff6577f4e487b7100000000000000000000000000000000000000000000000000000000600052603260045260246000fd5b6020026020010151604001518411155b5b1561201757600192505050612031565b808061202290613113565b915050611ec7565b5060009150505b9392505050565b60405180610140016040528060008152602001600073ffffffffffffffffffffffffffffffffffffffff16815260200160608152602001606081526020016060815260200160608152602001606081526020016060815260200160008152602001600081525090565b8280546120ad906130b0565b90600052602060002090601f0160209004810192826120cf5760008555612116565b82601f106120e857805160ff1916838001178555612116565b82800160010185558215612116579182015b828111156121155782518255916020019190600101906120fa565b5b5090506121239190612127565b5090565b5b80821115612140576000816000905550600101612128565b5090565b600061215761215284612d05565b612ce0565b90508281526020810184848401111561216f57600080fd5b61217a84828561306e565b509392505050565b60008151905061219181613355565b92915050565b600082601f8301126121a857600080fd5b81356121b8848260208601612144565b91505092915050565b6000813590506121d08161336c565b92915050565b6000815190506121e58161336c565b92915050565b6000815190506121fa8161339a565b92915050565b60008151905061220f81613383565b92915050565b600080600080600080600080610100898b03121561223257600080fd5b600089013567ffffffffffffffff81111561224c57600080fd5b6122588b828c01612197565b985050602089013567ffffffffffffffff81111561227557600080fd5b6122818b828c01612197565b975050604089013567ffffffffffffffff81111561229e57600080fd5b6122aa8b828c01612197565b965050606089013567ffffffffffffffff8111156122c757600080fd5b6122d38b828c01612197565b955050608089013567ffffffffffffffff8111156122f057600080fd5b6122fc8b828c01612197565b94505060a089013567ffffffffffffffff81111561231957600080fd5b6123258b828c01612197565b93505060c06123368b828c016121c1565b92505060e06123478b828c016121c1565b9150509295985092959890939650565b60006020828403121561236957600080fd5b6000612377848285016121c1565b91505092915050565b60008060006060848603121561239557600080fd5b60006123a3868287016121c1565b93505060206123b4868287016121c1565b92505060406123c5868287016121c1565b9150509250925092565b600080600080600060a086880312156123e757600080fd5b60006123f5888289016121eb565b955050602061240688828901612182565b9450506040612417888289016121d6565b9350506060612428888289016121d6565b9250506080612439888289016121eb565b9150509295509295909350565b60006020828403121561245857600080fd5b600061246684828501612200565b91505092915050565b600061247b83836126f3565b60608301905092915050565b60006124938383612735565b905092915050565b6124a481613005565b82525050565b6124b381613005565b82525050565b60006124c482612d56565b6124ce8185612d91565b93506124d983612d36565b8060005b8381101561250a5781516124f1888261246f565b97506124fc83612d77565b9250506001810190506124dd565b5085935050505092915050565b600061252282612d61565b61252c8185612da2565b93508360208202850161253e85612d46565b8060005b8581101561257a578484038952815161255b8582612487565b945061256683612d84565b925060208a01995050600181019050612542565b50829750879550505050505092915050565b600061259782612d6c565b6125a18185612db3565b93506125b181856020860161307d565b6125ba81613218565b840191505092915050565b60006125d082612d6c565b6125da8185612dc4565b93506125ea81856020860161307d565b6125f381613218565b840191505092915050565b600061260b601283612dc4565b915061261682613236565b602082019050919050565b600061262e600f83612dc4565b91506126398261325f565b602082019050919050565b6000612651601683612dc4565b915061265c82613288565b602082019050919050565b6000612674600f83612dc4565b915061267f826132b1565b602082019050919050565b6000612697601883612dc4565b91506126a2826132da565b602082019050919050565b60006126ba601a83612dc4565b91506126c582613303565b602082019050919050565b60006126dd601e83612dc4565b91506126e88261332c565b602082019050919050565b606082016000820151612709600085018261249b565b50602082015161271c602085018261292f565b50604082015161272f604085018261292f565b50505050565b60006101408301600083015161274e600086018261292f565b506020830151612761602086018261249b565b5060408301518482036040860152612779828261258c565b91505060608301518482036060860152612793828261258c565b915050608083015184820360808601526127ad828261258c565b91505060a083015184820360a08601526127c7828261258c565b91505060c083015184820360c08601526127e1828261258c565b91505060e083015184820360e08601526127fb828261258c565b91505061010083015161281261010086018261292f565b5061012083015161282761012086018261292f565b508091505092915050565b60006101408301600083015161284b600086018261292f565b50602083015161285e602086018261249b565b5060408301518482036040860152612876828261258c565b91505060608301518482036060860152612890828261258c565b915050608083015184820360808601526128aa828261258c565b91505060a083015184820360a08601526128c4828261258c565b91505060c083015184820360c08601526128de828261258c565b91505060e083015184820360e08601526128f8828261258c565b91505061010083015161290f61010086018261292f565b5061012083015161292461012086018261292f565b508091505092915050565b61293881613041565b82525050565b61294781613041565b82525050565b600060208201905061296260008301846124aa565b92915050565b6000602082019050818103600083015261298281846124b9565b905092915050565b600060208201905081810360008301526129a48184612517565b905092915050565b600060208201905081810360008301526129c5816125fe565b9050919050565b600060208201905081810360008301526129e581612621565b9050919050565b60006020820190508181036000830152612a0581612644565b9050919050565b60006020820190508181036000830152612a2581612667565b9050919050565b60006020820190508181036000830152612a458161268a565b9050919050565b60006020820190508181036000830152612a65816126ad565b9050919050565b60006020820190508181036000830152612a85816126d0565b9050919050565b60006020820190508181036000830152612aa68184612832565b905092915050565b6000602082019050612ac3600083018461293e565b92915050565b600061014082019050612adf600083018d61293e565b612aec602083018c6124aa565b8181036040830152612afe818b6125c5565b90508181036060830152612b12818a6125c5565b90508181036080830152612b2681896125c5565b905081810360a0830152612b3a81886125c5565b905081810360c0830152612b4e81876125c5565b905081810360e0830152612b6281866125c5565b9050612b7261010083018561293e565b612b8061012083018461293e565b9b9a5050505050505050505050565b600061016082019050612ba5600083018e61293e565b612bb2602083018d6124aa565b8181036040830152612bc4818c6125c5565b90508181036060830152612bd8818b6125c5565b90508181036080830152612bec818a6125c5565b905081810360a0830152612c0081896125c5565b905081810360c0830152612c1481886125c5565b905081810360e0830152612c2881876125c5565b9050612c3861010083018661293e565b612c4661012083018561293e565b612c5461014083018461293e565b9c9b505050505050505050505050565b600060a082019050612c79600083018861293e565b612c8660208301876124aa565b612c93604083018661293e565b612ca0606083018561293e565b612cad608083018461293e565b9695505050505050565b6000604082019050612ccc600083018561293e565b612cd9602083018461293e565b9392505050565b6000612cea612cfb565b9050612cf682826130e2565b919050565b6000604051905090565b600067ffffffffffffffff821115612d2057612d1f6131e9565b5b612d2982613218565b9050602081019050919050565b6000819050602082019050919050565b6000819050602082019050919050565b600081519050919050565b600081519050919050565b600081519050919050565b6000602082019050919050565b6000602082019050919050565b600082825260208201905092915050565b600082825260208201905092915050565b600082825260208201905092915050565b600082825260208201905092915050565b6000612de082613041565b9150612deb83613041565b925082612dfb57612dfa61318b565b5b828204905092915050565b6000808291508390505b6001851115612e5057808604811115612e2c57612e2b61315c565b5b6001851615612e3b5780820291505b8081029050612e4985613229565b9450612e10565b94509492505050565b6000612e6482613041565b9150612e6f83613041565b9250612e9c7fffffffffffffffffffffffffffffffffffffffffffffffffffffffffffffffff8484612ea4565b905092915050565b600082612eb45760019050612f70565b81612ec25760009050612f70565b8160018114612ed85760028114612ee257612f11565b6001915050612f70565b60ff841115612ef457612ef361315c565b5b8360020a915084821115612f0b57612f0a61315c565b5b50612f70565b5060208310610133831016604e8410600b8410161715612f465782820a905083811115612f4157612f4061315c565b5b612f70565b612f538484846001612e06565b92509050818404811115612f6a57612f6961315c565b5b81810290505b9392505050565b6000612f8282613041565b9150612f8d83613041565b9250817fffffffffffffffffffffffffffffffffffffffffffffffffffffffffffffffff0483118215151615612fc657612fc561315c565b5b828202905092915050565b6000612fdc82613041565b9150612fe783613041565b925082821015612ffa57612ff961315c565b5b828203905092915050565b600061301082613021565b9050919050565b6000819050919050565b600073ffffffffffffffffffffffffffffffffffffffff82169050919050565b6000819050919050565b600060ff82169050919050565b600069ffffffffffffffffffff82169050919050565b82818337600083830152505050565b60005b8381101561309b578082015181840152602081019050613080565b838111156130aa576000848401525b50505050565b600060028204905060018216806130c857607f821691505b602082108114156130dc576130db6131ba565b5b50919050565b6130eb82613218565b810181811067ffffffffffffffff8211171561310a576131096131e9565b5b80604052505050565b600061311e82613041565b91507fffffffffffffffffffffffffffffffffffffffffffffffffffffffffffffffff8214156131515761315061315c565b5b600182019050919050565b7f4e487b7100000000000000000000000000000000000000000000000000000000600052601160045260246000fd5b7f4e487b7100000000000000000000000000000000000000000000000000000000600052601260045260246000fd5b7f4e487b7100000000000000000000000000000000000000000000000000000000600052602260045260246000fd5b7f4e487b7100000000000000000000000000000000000000000000000000000000600052604160045260246000fd5b6000601f19601f8301169050919050565b60008160011c9050919050565b7f696e737566666973616e7420616d6f756e740000000000000000000000000000600082015250565b7f57726f6e672072656e74616c2069640000000000000000000000000000000000600082015250565b7f496e76616c696420426f6f6b696e6720506572696f6400000000000000000000600082015250565b7f77726f6e672072656e74616c2069640000000000000000000000000000000000600082015250565b7f4f6e6c792041646d696e2043616e2043616c6c20546869730000000000000000600082015250565b7f6d75737420706179206578616374206c697374696e6720666565000000000000600082015250565b7f616c726561647920626f6f6b656420666f7220676976656e2064617465730000600082015250565b61335e81613017565b811461336957600080fd5b50565b61337581613041565b811461338057600080fd5b50565b61338c8161304b565b811461339757600080fd5b50565b6133a381613058565b81146133ae57600080fd5b5056fea26469706673582212201cb57fe298ee8bc580512e01f06808bd0660a7b498320fcf93edd3bd7a5f160f64736f6c63430008040033",
  "linkReferences": {},
  "deployedLinkReferences": {}
}